:0300000001fffffe
:0300010001fffdff
:0300020001fff506
:0300030001ffe911
:0300040001ffd821
:0300050001ffc137
:0300060001ffa651
:0300070001ff8670
:0300080001ff6194
:0300090001ff37bd
:03000a0001ff08eb
:03000b0001fed51e
:03000c0001fe9c56
:03000d0001fe5e93
:03000e0001fe1cd4
:03000f0001fdd41c
:0300100001fd8867
:0300110001fd37b7
:0300120001fce00e
:0300130001fc8568
:0300140001fc25c7
:0300150001fbc02c
:0300160001fb5794
:0300170001fae803
:0300180001fa7476
:0300190001f9fcee
:03001a0001f97f6a
:03001b0001f8fced
:03001c0001f87573
:03001d0001f7e9ff
:03001e0001f7598e
:03001f0001f6c324
:0300200001f629bd
:0300210001f5895d
:0300220001f4e501
:0300230001f43ca9
:0300240001f38e57
:0300250001f2dc09
:0300260001f224c0
:0300270001f1687c
:0300280001f0a73d
:0300290001efe103
:03002a0001ef17cc
:03002b0001ee479c
:03002c0001ed7370
:03002d0001ec9a49
:03002e0001ebbd26
:03002f0001eada09
:0300300001e9f3f0
:0300310001e907db
:0300320001e817cb
:0300330001e722c0
:0300340001e628ba
:0300350001e529b9
:0300360001e426bc
:0300370001e31ec4
:0300380001e211d1
:0300390001e100e2
:03003a0001dfeaf9
:03003b0001decf14
:03003c0001ddb033
:03003d0001dc8d56
:03003e0001db647f
:03003f0001da37ac
:0300400001d906dd
:0300410001d7d014
:0300420001d6954f
:0300430001d5568e
:0300440001d412d2
:0300450001d2ca1b
:0300460001d17e67
:0300470001d02cb9
:0300480001ced70f
:0300490001cd7d69
:03004a0001cc1ec8
:03004b0001cabb2c
:03004c0001c95493
:03004d0001c7e800
:03004e0001c67870
:03004f0001c503e5
:0300500001c38a5f
:0300510001c20ddc
:0300520001c08b5f
:0300530001bf05e5
:0300540001bd7b70
:0300550001bbedff
:0300560001ba5a92
:0300570001b8c32a
:0300580001b727c6
:0300590001b58866
:03005a0001b3e40b
:03005b0001b23cb3
:03005c0001b09060
:03005d0001aedf12
:03005e0001ad2bc6
:03005f0001ab7280
:0300600001a9b63d
:0300610001a7f5ff
:0300620001a630c4
:0300630001a4678e
:0300640001a29a5c
:0300650001a0c92e
:03006600019ef305
:03006700019d1ade
:03006800019b3dbc
:0300690001995c9e
:03006a0001977784
:03006b0001958e6e
:03006c000193a15c
:03006d000191b14d
:03006e00018fbc43
:03006f00018dc43c
:03007000018bc73a
:030071000189c73b
:030072000187c340
:030073000185bc48
:030074000183b055
:030075000181a165
:03007600017f8e79
:03007700017d7791
:03007800017b5dac
:0300790001793fcb
:03007a0001771eed
:03007b000174f914
:03007c000172d03e
:03007d000170a36c
:03007e00016e749c
:03007f00016c40d1
:03008000016a0909
:030081000167cf45
:0300820001659184
:03008300016350c6
:0300840001610b0c
:03008500015ec356
:03008600015c77a3
:03008700015a28f3
:030088000157d647
:030089000155809e
:03008a00015327f8
:03008b000150cb56
:03008c00014e6cb6
:03008d00014c091a
:03008e000149a481
:03008f0001473beb
:030090000144cf59
:0300910001425fca
:03009200013fed3e
:03009300013d78b4
:03009400013aff2f
:03009500013883ac
:030096000136052b
:03009700013383af
:030098000130ff35
:03009900012e77be
:03009a00012bed4a
:03009b00012960d8
:03009c000126d06a
:03009d0001243dfe
:03009e000121a796
:03009f00011f0e30
:0300a000011c73cd
:0300a1000119d56d
:0300a2000117340f
:0300a300011491b4
:0300a4000111eb5c
:0300a500010f4206
:0300a600010c96b4
:0300a7000109e963
:0300a80001073815
:0300a900010485ca
:0300aa000101cf82
:0300ab0000ff173c
:0300ac0000fc5df8
:0300ad0000f9a0b7
:0300ae0000f6e079
:0300af0000f41f3b
:0300b00000f15a02
:0300b10000ee94ca
:0300b20000ebcb95
:0300b30000e90061
:0300b40000e63330
:0300b50000e36401
:0300b60000e092d5
:0300b70000ddbeab
:0300b80000dae883
:0300b90000d8105c
:0300ba0000d53638
:0300bb0000d25a16
:0300bc0000cf7bf7
:0300bd0000cc9bd9
:0300be0000c9b9bd
:0300bf0000c6d5a3
:0300c00000c3ef8b
:0300c10000c10774
:0300c20000be1d60
:0300c30000bb314e
:0300c40000b8443d
:0300c50000b5552e
:0300c60000b26421
:0300c70000af7116
:0300c80000ac7c0d
:0300c90000a98605
:0300ca0000a68ffe
:0300cb0000a395fa
:0300cc0000a09bf6
:0300cd00009d9ef5
:0300ce00009aa0f5
:0300cf000097a1f6
:0300d0000094a0f9
:0300d10000919efd
:0300d200008e9a03
:0300d300008b950a
:0300d40000888e13
:0300d5000085871c
:0300d60000827d28
:0300d700007f7334
:0300d800007c6841
:0300d90000795b50
:0300da0000764d60
:0300db0000733e71
:0300dc0000702e83
:0300dd00006d1d96
:0300de00006a0aab
:0300df000066f7c1
:0300e0000063e3d7
:0300e1000060cdef
:0300e200005db707
:0300e300005aa020
:0300e4000057883a
:0300e50000546f55
:0300e60000515670
:0300e700004e3b8d
:0300e800004b20aa
:0300e900004804c8
:0300ea000044e8e7
:0300eb000041ca07
:0300ec00003eac27
:0300ed00003b8e47
:0300ee0000386f68
:0300ef0000354f8a
:0300f00000322fac
:0300f100002f0fce
:0300f200002beef2
:0300f3000028cc16
:0300f4000025aa3a
:0300f5000022885e
:0300f600001f6583
:0300f700001c42a8
:0300f80000191fcd
:0300f9000015fcf3
:0300fa000012d819
:0300fb00000fb53e
:0300fc00000c9164
:0300fd0000096d8a
:0300fe00000648b1
:0300ff00000324d7
:00000001FF
