:03000000000000fd
:0300010000096d86
:030002000012d811
:03000300001c429c
:030004000025aa2a
:03000500002f0fba
:0300060000386f50
:030007000041caeb
:03000800004b208a
:0300090000546f31
:03000a00005db7df
:03000b000066f795
:03000c0000702e53
:03000d0000795b1c
:03000e0000827df0
:03000f00008b95ce
:030010000094a0b9
:03001100009d9eb1
:0300120000a68fb6
:0300130000af71ca
:0300140000b844ed
:0300150000c10720
:0300160000c9b965
:0300170000d25aba
:0300180000dae823
:0300190000e3649d
:03001a0000ebcb2d
:03001b0000f41fcf
:03001c0000fc5d88
:03001d0001048556
:03001e00010c963c
:03001f0001149138
:03002000011c734d
:0300210001243d7a
:03002200012bedc2
:0300230001338323
:03002400013aff9f
:0300250001425f36
:030026000149a4e9
:030027000150cbba
:030028000157d6a7
:03002900015ec3b2
:03002a00016591dc
:03002b00016c4025
:03002c000172d08e
:03002d0001793f17
:03002e00017f8ec1
:03002f000185bc8c
:03003000018bc77a
:030031000191b189
:03003200019777bc
:03003300019d1a12
:0300340001a29a8c
:0300350001a7f52b
:0300360001ad2bee
:0300370001b23cd7
:0300380001b727e6
:0300390001bbed1b
:03003a0001c08b77
:03003b0001c503f9
:03003c0001c954a3
:03003d0001cd7d75
:03003e0001d17e6f
:03003f0001d55692
:0300400001d906dd
:0300410001dc8d52
:0300420001dfeaf1
:0300430001e31eb8
:0300440001e628aa
:0300450001e907c7
:0300460001ebbd0e
:0300470001ee4780
:0300480001f0a71d
:0300490001f2dce5
:03004a0001f4e5d9
:03004b0001f6c3f8
:03004c0001f87543
:03004d0001f9fcba
:03004e0001fb575c
:03004f0001fc852c
:0300500001fd8827
:0300510001fe5e4f
:0300520001ff08a3
:0300530001ff8624
:0300540001ffd8d1
:0300550001fffdab
:0300560001fff5b2
:0300570001ffc1e5
:0300580001ff6144
:0300590001fed5d0
:03005a0001fe1c88
:03005b0001fd376d
:03005c0001fc257f
:03005d0001fae8bd
:03005e0001f97f26
:03005f0001f7e9bd
:0300600001f6297d
:0300610001f43c6b
:0300620001f22484
:0300630001efe1c9
:0300640001ed7338
:0300650001eadad3
:0300660001e81797
:0300670001e52987
:0300680001e211a1
:0300690001decfe6
:03006a0001db6453
:03006b0001d7d0ea
:03006c0001d412aa
:03006d0001d02c93
:03006e0001cc1ea4
:03006f0001c7e8de
:0300700001c38a3f
:0300710001bf05c7
:0300720001ba5a76
:0300730001b5884c
:0300740001b09048
:0300750001ab726a
:0300760001a630b0
:0300770001a0c91c
:03007800019b3dac
:0300790001958e60
:03007a00018fbc37
:03007b000189c731
:03007c000183b04d
:03007d00017d778b
:03007e0001771ee9
:03007f000170a36a
:03008000016a0909
:03008100016350c8
:03008200015c77a7
:03008300015580a4
:03008400014e6cbe
:0300850001473bf5
:03008600013fed4a
:03008700013883ba
:030088000130ff45
:03008900012960ea
:03008a000121a7aa
:03008b000119d583
:03008c000111eb74
:03008d000109e97d
:03008e000101cf9e
:03008f0000f9a0d5
:0300900000f15a22
:0300910000e90083
:0300920000e092f9
:0300930000d81082
:0300940000cf7b1f
:0300950000c6d5cd
:0300960000be1d8c
:0300970000b5555c
:0300980000ac7c3d
:0300990000a3952c
:03009a00009aa029
:03009b0000919e33
:03009c0000888e4b
:03009d00007f736e
:03009e0000764d9c
:03009f00006d1dd4
:0300a0000063e317
:0300a100005aa062
:0300a200005156b4
:0300a3000048040e
:0300a400003eac6f
:0300a50000354fd4
:0300a600002bee3e
:0300a700002288ac
:0300a80000191f1d
:0300a900000fb590
:0300aa0000064805
:0300ab0003fcdc77
:0300ac0003f36fec
:0300ad0003ea045f
:0300ae0003e09bd1
:0300af0003d73440
:0300b00003cdd1ac
:0300b10003c47213
:0300b20003bb1875
:0300b30003b1c5d1
:0300b40003a87826
:0300b500039f3373
:0300b6000395f6b9
:0300b700038cc2f5
:0300b80003839827
:0300b900037a794e
:0300ba0003716669
:0300bb0003685f78
:0300bc00035f657a
:0300bd0003567a6d
:0300be00034d9c53
:0300bf000344cf28
:0300c000033c11ed
:0300c100033365a1
:0300c200032aca44
:0300c300032242d3
:0300c4000319cd50
:0300c50003116cb8
:0300c6000309200b
:0300c7000300e94a
:0300c80002f8c873
:0300c90002f0be84
:0300ca0002e8cc7d
:0300cb0002e0f25e
:0300cc0002d93026
:0300cd0002d189d4
:0300ce0002c9fb69
:0300cf0002c288e2
:0300d00002bb313f
:0300d10002b3f780
:0300d20002acd9a4
:0300d30002a5d8ab
:0300d400029ef594
:0300d5000298315d
:0300d60002918c08
:0300d700028b0792
:0300d8000284a3fc
:0300d900027e5f45
:0300da0002783d6c
:0300db0002723c72
:0300dc00026c5f54
:0300dd000266a414
:0300de0002610daf
:0300df00025b9928
:0300e00002564a7b
:0300e100025121a8
:0300e200024c1cb1
:0300e30002473d94
:0300e40002428550
:0300e500023df3e6
:0300e60002398854
:0300e7000235459a
:0300e800023129b9
:0300e900022d36af
:0300ea0002296b7d
:0300eb000225c922
:0300ec000222509d
:0300ed00021f00ef
:0300ee00021bda18
:0300ef000218de16
:0300f00002160de8
:0300f10002136691
:0300f2000210e910
:0300f300020e9862
:0300f400020c7289
:0300f500020a7785
:0300f6000208a756
:0300f700020704f9
:0300f80002058c72
:0300f900020440be
:0300fa00020320de
:0300fb0002022cd2
:0300fc000201649a
:0300fd000200c935
:0300fe0002005aa3
:0300ff00020017e5
:00000001FF
