:03000000000000fd
:0300010000191fc4
:0300020000322f9a
:03000300004b208f
:030004000063e3b3
:03000500007c6814
:030006000094a0c3
:0300070000ac7cce
:0300080000c3ef43
:0300090000dae832
:03000a0000f15aa8
:03000b00010738b2
:03000c00011c7361
:03000d000130ffc0
:03000e000144cfdb
:03000f000157d6c0
:03001000016a0979
:03001100017b5d13
:03001200018bc798
:03001300019b3d11
:0300140001a9b689
:0300150001b72709
:0300160001c38a99
:0300170001ced740
:0300180001d90605
:0300190001e211f0
:03001a0001e9f306
:03001b0001f0a74a
:03001c0001f629c1
:03001d0001fa7471
:03001e0001fd8859
:03001f0001ff617d
:0300200001ffffde
:0300210001ff617b
:0300220001fd8855
:0300230001fa746b
:0300240001f629b9
:0300250001f0a740
:0300260001e9f3fa
:0300270001e211e2
:0300280001d906f5
:0300290001ced72e
:03002a0001c38a85
:03002b0001b727f3
:03002c0001a9b671
:03002d00019b3df7
:03002e00018bc77c
:03002f00017b5df5
:03003000016a0959
:030031000157d69e
:030032000144cfb7
:030033000130ff9a
:03003400011c7339
:0300350001073888
:0300360000f15a7c
:0300370000dae804
:0300380000c3ef13
:0300390000ac7c9c
:03003a000094a08f
:03003b00007c68de
:03003c000063e37b
:03003d00004b2055
:03003e0000322f5e
:03003f0000191f86
:00000001FF
