:03000000000000fd
:03000100000648ae
:03000200000c915e
:030003000012d810
:0300040000191fc1
:03000500001f6574
:030006000025aa28
:03000700002beedd
:0300080000322f94
:0300090000386f4d
:03000a00003eac09
:03000b000044e8c6
:03000c00004b2086
:03000d0000515649
:03000e0000578810
:03000f00005db7da
:030010000063e3a7
:03001100006a0a78
:0300120000702e4d
:0300130000764d27
:03001400007c6805
:0300150000827de9
:0300160000888ed1
:03001700008e9abe
:030018000094a0b1
:03001900009aa0aa
:03001a0000a09ba8
:03001b0000a68fad
:03001c0000ac7cb9
:03001d0000b264ca
:03001e0000b844e3
:03001f0000be1d03
:0300200000c3ef2b
:0300210000c9b95a
:0300220000cf7b91
:0300230000d536cf
:0300240000dae817
:0300250000e09266
:0300260000e633be
:0300270000ebcb20
:0300280000f15a8a
:0300290000f6e0fe
:03002a0000fc5d7a
:03002b000101cf01
:03002c0001073891
:03002d00010c962d
:03002e000111ebd2
:03002f0001173482
:03003000011c733d
:030031000121a703
:030032000126d0d4
:03003300012bedb1
:030034000130ff99
:030035000136058c
:03003600013aff8d
:03003700013fed99
:030038000144cfb1
:030039000149a4d6
:03003a00014e6c08
:03003b0001532747
:03003c000157d693
:03003d00015c77ec
:03003e0001610b52
:03003f00016591c7
:03004000016a0949
:03004100016e74d9
:030042000172d078
:0300430001771e24
:03004400017b5de0
:03004500017f8eaa
:030046000183b083
:030047000187c36b
:03004800018bc762
:03004900018fbc68
:03004a000193a17e
:03004b00019777a3
:03004c00019b3dd8
:03004d00019ef31e
:03004e0001a29a72
:03004f0001a630d7
:0300500001a9b64d
:0300510001ad2bd3
:0300520001b0906a
:0300530001b3e412
:0300540001b727ca
:0300550001ba5a93
:0300560001bd7b6e
:0300570001c08b5a
:0300580001c38a57
:0300590001c67865
:03005a0001c95485
:03005b0001cc1eb7
:03005c0001ced7fb
:03005d0001d17e50
:03005e0001d412b8
:03005f0001d69532
:0300600001d906bd
:0300610001db645c
:0300620001ddb00d
:0300630001dfead0
:0300640001e211a5
:0300650001e4268d
:0300660001e62888
:0300670001e81796
:0300680001e9f3b8
:0300690001ebbdeb
:03006a0001ed7332
:03006b0001ef178b
:03006c0001f0a7f9
:03006d0001f22479
:03006e0001f38e0d
:03006f0001f4e5b4
:0300700001f6296d
:0300710001f7593b
:0300720001f8751d
:0300730001f97f11
:0300740001fa741a
:0300750001fb5735
:0300760001fc2565
:0300770001fce0a9
:0300780001fd88ff
:0300790001fe1c69
:03007a0001fe9ce8
:03007b0001ff087a
:03007c0001ff6120
:03007d0001ffa6da
:03007e0001ffd8a7
:03007f0001fff589
:0300800001ffff7e
:0300810001fff587
:0300820001ffd8a3
:0300830001ffa6d4
:0300840001ff6118
:0300850001ff0870
:0300860001fe9cdc
:0300870001fe1c5b
:0300880001fd88ef
:0300890001fce097
:03008a0001fc2551
:03008b0001fb571f
:03008c0001fa7402
:03008d0001f97ff7
:03008e0001f87501
:03008f0001f7591d
:0300900001f6294d
:0300910001f4e592
:0300920001f38ee9
:0300930001f22453
:0300940001f0a7d1
:0300950001ef1761
:0300960001ed7306
:0300970001ebbdbd
:0300980001e9f388
:0300990001e81764
:03009a0001e62854
:03009b0001e42657
:03009c0001e2116d
:03009d0001dfea96
:03009e0001ddb0d1
:03009f0001db641e
:0300a00001d9067d
:0300a10001d695f0
:0300a20001d41274
:0300a30001d17e0a
:0300a40001ced7b3
:0300a50001cc1e6d
:0300a60001c95439
:0300a70001c67817
:0300a80001c38a07
:0300a90001c08b08
:0300aa0001bd7b1a
:0300ab0001ba5a3d
:0300ac0001b72772
:0300ad0001b3e4b8
:0300ae0001b0900e
:0300af0001ad2b75
:0300b00001a9b6ed
:0300b10001a63075
:0300b20001a29a0e
:0300b300019ef3b8
:0300b400019b3d70
:0300b50001977739
:0300b6000193a112
:0300b700018fbcfa
:0300b800018bc7f2
:0300b9000187c3f9
:0300ba000183b00f
:0300bb00017f8e34
:0300bc00017b5d68
:0300bd0001771eaa
:0300be000172d0fc
:0300bf00016e745b
:0300c000016a09c9
:0300c10001659145
:0300c20001610bce
:0300c300015c7766
:0300c4000157d60b
:0300c500015327bd
:0300c600014e6c7c
:0300c7000149a448
:0300c8000144cf21
:0300c900013fed07
:0300ca00013afff9
:0300cb00013605f6
:0300cc000130ff01
:0300cd00012bed17
:0300ce000126d038
:0300cf000121a765
:0300d000011c739d
:0300d100011734e0
:0300d2000111eb2e
:0300d300010c9687
:0300d400010738e9
:0300d5000101cf57
:0300d60000fc5dce
:0300d70000f6e050
:0300d80000f15ada
:0300d90000ebcb6e
:0300da0000e6330a
:0300db0000e092b0
:0300dc0000dae85f
:0300dd0000d53615
:0300de0000cf7bd5
:0300df0000c9b99c
:0300e00000c3ef6b
:0300e10000be1d41
:0300e20000b8441f
:0300e30000b26404
:0300e40000ac7cf1
:0300e50000a68fe3
:0300e60000a09bdc
:0300e700009aa0dc
:0300e8000094a0e1
:0300e900008e9aec
:0300ea0000888efd
:0300eb0000827d13
:0300ec00007c682d
:0300ed0000764d4d
:0300ee0000702e71
:0300ef00006a0a9a
:0300f0000063e3c7
:0300f100005db7f8
:0300f2000057882c
:0300f30000515663
:0300f400004b209e
:0300f5000044e8dc
:0300f600003eac1d
:0300f70000386f5f
:0300f80000322fa4
:0300f900002beeeb
:0300fa000025aa34
:0300fb00001f657e
:0300fc0000191fc9
:0300fd000012d816
:0300fe00000c9162
:0300ff00000648b0
:00000001FF
