:0300000001fffffe
:0300010001ffe913
:0300020001ffa655
:0300030001ff37c3
:0300040001fe9c5e
:0300050001fdd426
:0300060001fce01a
:0300070001fbc03a
:0300080001fa7486
:0300090001f8fcff
:03000a0001f759a2
:03000b0001f58973
:03000c0001f38e6f
:03000d0001f16896
:03000e0001ef17e8
:03000f0001ec9a67
:0300100001e9f310
:0300110001e722e2
:0300120001e426e0
:0300130001e10008
:0300140001ddb05b
:0300150001da37d6
:0300160001d6957b
:0300170001d2ca49
:0300180001ced73f
:0300190001cabb5e
:03001a0001c678a4
:03001b0001c20d12
:03001c0001bd7ba8
:03001d0001b8c364
:03001e0001b3e447
:03001f0001aedf50
:0300200001a9b67d
:0300210001a467d0
:03002200019ef349
:0300230001995ce4
:030024000193a1a4
:03002500018dc486
:030026000187c38c
:030027000181a1b3
:03002800017b5dfc
:030029000174f966
:03002a00016e74f0
:03002b000167cf9b
:03002c0001610b64
:03002d00015a284d
:03002e0001532754
:03002f00014c0978
:030030000144cfb9
:03003100013d7816
:030032000136058f
:03003300012e7724
:030034000126d0d2
:03003500011f0e9a
:030036000117347b
:03003700010f4274
:0300380001073885
:0300390000ff17ae
:03003a0000f6e0ed
:03003b0000ee9440
:03003c0000e633a8
:03003d0000ddbe25
:03003e0000d536b4
:03003f0000cc9b57
:0300400000c3ef0b
:0300410000bb31d0
:0300420000b264a5
:0300430000a9868b
:0300440000a09b7e
:030045000097a180
:03004600008e9a8f
:03004700008587aa
:03004800007c68d1
:0300490000733e03
:03004a00006a0a3f
:03004b000060cd85
:03004c00005788d2
:03004d00004e3b27
:03004e000044e883
:03004f00003b8ee5
:0300500000322f4c
:030051000028ccb8
:03005200001f6527
:030053000015fc99
:03005400000c910c
:0300550000032481
:0300560003f9b8f3
:0300570003f04b68
:0300580003e6e1db
:0300590003dd784c
:03005a0003d412ba
:03005b0003cab124
:03005c0003c15489
:03005d0003b7fcea
:03005e0003aeaa44
:03005f0003a56096
:03006000039c1de1
:030061000392e324
:030062000389b35c
:0300630003808d8a
:03006400037772ad
:03006500036e62c5
:03006600036560cf
:03006700035c6bcc
:03006800035384bb
:03006900034aab9c
:03006a000341e36c
:03006b0003392b2b
:03006c00033085d9
:03006d000327f076
:03006e00031f6eff
:03006f0003170074
:03007000030ea6d6
:0300710003066023
:0300720002fe315a
:0300730002f6177b
:0300740002ee1584
:0300750002e62b75
:0300760002de594e
:0300770002d6a00e
:0300780002cf01b3
:0300790002c77d3e
:03007a0002c013ae
:03007b0002b8c503
:03007c0002b1943a
:03007d0002aa8054
:03007e0002a38951
:03007f00029cb030
:030080000295f7ef
:03008100028f5d8e
:030082000288e20f
:030083000282896d
:03008400027c50ab
:03008500027639c7
:03008600027044c1
:03008700026a7298
:030088000264c34c
:03008900025f37dc
:03008a000259d048
:03008b0002548e8e
:03008c00024f70b0
:03008d00024a78ac
:03008e000245a682
:03008f000240fb31
:03009000023c76b9
:030091000238181a
:030092000233e254
:03009300022fd465
:03009400022bee4e
:030095000228300e
:0300960002249ca5
:0300970002213112
:03009800021def57
:03009900021ad771
:03009a000217e961
:03009b0002152625
:03009c0002128dc0
:03009d0002101f2f
:03009e00020ddc74
:03009f00020bc48d
:0300a0000209d77b
:0300a1000208173b
:0300a200020681d2
:0300a3000205183b
:0300a4000203db79
:0300a5000202c98b
:0300a6000201e470
:0300a70002012b28
:0300a80002009fb4
:0300a90002003f13
:0300aa0002000b46
:0300ab000200034d
:0300ac0002002827
:0300ad0002007ad4
:0300ae000200f855
:0300af000201a2a9
:0300b000020278d1
:0300b10002037bcc
:0300b2000204a99c
:0300b3000206043e
:0300b40002078bb5
:0300b50002093d00
:0300b600020b1b1f
:0300b700020d2413
:0300b800020f59db
:0300b9000211b978
:0300ba00021443ea
:0300bb000216f931
:0300bc000219d84e
:0300bd00021ce240
:0300be0002201607
:0300bf00022373a6
:0300c0000226fa1b
:0300c100022aaa66
:0300c200022e8289
:0300c30002328383
:0300c4000236ac55
:0300c500023afdff
:0300c600023f7581
:0300c700024413dd
:0300c8000248d912
:0300c900024dc421
:0300ca000252d50a
:0300cb0002580bcd
:0300cc00025d666c
:0300cd000262e6e6
:0300ce000268893c
:0300cf00026e4f6f
:0300d0000274397e
:0300d100027a446c
:0300d20002807237
:0300d3000286c1e1
:0300d400028d306a
:0300d5000293c0d3
:0300d600029a6f1c
:0300d70002a13d46
:0300d80002a82a51
:0300d90002af353e
:0300da0002b65c0f
:0300db0002bda1c2
:0300dc0002c50159
:0300dd0002cc7dd5
:0300de0002d41336
:0300df0002dbc37e
:0300e00002e38dab
:0300e10002eb6fc0
:0300e20002f36abc
:0300e30002fb7ba2
:0300e4000303a370
:0300e500030be129
:0300e600031435cb
:0300e700031c9c5b
:0300e800032518d5
:0300e900032da63e
:0300ea0003364793
:0300eb00033ef9d8
:0300ec000347bc0b
:0300ed0003508f2e
:0300ee0003597142
:0300ef0003626247
:0300f000036b603f
:0300f10003746b2a
:0300f200037d8308
:0300f3000386a5dc
:0300f400038fd2a5
:0300f50003990963
:0300f60003a24919
:0300f70003ab91c7
:0300f80003b4e06e
:0300f90003be360d
:0300fa0003c791a8
:0300fb0003d0f13e
:0300fc0003da56ce
:0300fd0003e3be5c
:0300fe0003ed28e7
:0300ff0003f69372
:00000001FF
