:03000000000000fd
:03000100000324d5
:03000200000648ad
:0300030000096d84
:03000400000c915c
:03000500000fb534
:030006000012d80d
:030007000015fce5
:0300080000191fbd
:03000900001c4296
:03000a00001f656f
:03000b0000228848
:03000c000025aa22
:03000d000028ccfc
:03000e00002beed6
:03000f00002f0fb0
:0300100000322f8c
:0300110000354f68
:0300120000386f44
:03001300003b8e21
:03001400003eacff
:030015000041cadd
:030016000044e8bb
:030017000048049a
:03001800004b207a
:03001900004e3b5b
:03001a000051563c
:03001b0000546f1f
:03001c0000578802
:03001d00005aa0e6
:03001e00005db7cb
:03001f000060cdb1
:030020000063e397
:030021000066f77f
:03002200006a0a67
:03002300006d1d50
:0300240000702e3b
:0300250000733e27
:0300260000764d14
:0300270000795b02
:03002800007c68f1
:03002900007f73e2
:03002a0000827dd4
:03002b00008587c6
:03002c0000888ebb
:03002d00008b95b0
:03002e00008e9aa7
:03002f0000919e9f
:030030000094a099
:030031000097a194
:03003200009aa091
:03003300009d9e8f
:0300340000a09b8e
:0300350000a39590
:0300360000a68f92
:0300370000a98697
:0300380000ac7c9d
:0300390000af71a4
:03003a0000b264ad
:03003b0000b555b8
:03003c0000b844c5
:03003d0000bb31d4
:03003e0000be1de4
:03003f0000c107f6
:0300400000c3ef0b
:0300410000c6d521
:0300420000c9b939
:0300430000cc9b53
:0300440000cf7b6f
:0300450000d25a8c
:0300460000d536ac
:0300470000d810ce
:0300480000dae8f3
:0300490000ddbe19
:03004a0000e09241
:03004b0000e3646b
:03004c0000e63398
:03004d0000e900c7
:03004e0000ebcbf9
:03004f0000ee942c
:0300500000f15a62
:0300510000f41f99
:0300520000f6e0d5
:0300530000f9a011
:0300540000fc5d50
:0300550000ff1792
:030056000101cfd6
:030057000104851c
:0300580001073865
:030059000109e9b1
:03005a00010c9600
:03005b00010f4250
:03005c000111eba4
:03005d00011491fa
:03005e0001173453
:03005f000119d5af
:03006000011c730d
:03006100011f0e6e
:030062000121a7d2
:0300630001243d38
:030064000126d0a2
:030065000129600e
:03006600012bed7e
:03006700012e77f0
:030068000130ff65
:03006900013383dd
:03006a0001360557
:03006b00013883d6
:03006c00013aff57
:03006d00013d78da
:03006e00013fed62
:03006f0001425fec
:030070000144cf79
:0300710001473b09
:030072000149a49d
:03007300014c0934
:03007400014e6cce
:030075000150cb6c
:030076000153270c
:03007700015580b0
:030078000157d657
:03007900015a2801
:03007a00015c77af
:03007b00015ec360
:03007c0001610b14
:03007d00016350cc
:03007e0001659188
:03007f000167cf47
:03008000016a0909
:03008100016c40cf
:03008200016e7498
:030083000170a366
:030084000172d036
:030085000174f90a
:0300860001771ee1
:0300870001793fbd
:03008800017b5d9c
:03008900017d777f
:03008a00017f8e65
:03008b000181a14f
:03008c000183b03d
:03008d000185bc2e
:03008e000187c324
:03008f000189c71d
:03009000018bc71a
:03009100018dc41a
:03009200018fbc1f
:030093000191b127
:030094000193a134
:0300950001958e44
:0300960001977758
:0300970001995c70
:03009800019b3d8c
:03009900019d1aac
:03009a00019ef3d1
:03009b0001a0c9f8
:03009c0001a29a24
:03009d0001a46754
:03009e0001a63088
:03009f0001a7f5c1
:0300a00001a9b6fd
:0300a10001ab723e
:0300a20001ad2b82
:0300a30001aedfcc
:0300a40001b09018
:0300a50001b23c69
:0300a60001b3e4bf
:0300a70001b58818
:0300a80001b72776
:0300a90001b8c3d8
:0300aa0001ba5a3e
:0300ab0001bbeda9
:0300ac0001bd7b18
:0300ad0001bf058b
:0300ae0001c08b03
:0300af0001c20d7e
:0300b00001c38aff
:0300b10001c50383
:0300b20001c6780c
:0300b30001c7e89a
:0300b40001c9542b
:0300b50001cabbc2
:0300b60001cc1e5c
:0300b70001cd7dfb
:0300b80001ced79f
:0300b90001d02c47
:0300ba0001d17ef3
:0300bb0001d2caa5
:0300bc0001d4125a
:0300bd0001d55614
:0300be0001d695d3
:0300bf0001d7d096
:0300c00001d9065d
:0300c10001da372a
:0300c20001db64fb
:0300c30001dc8dd0
:0300c40001ddb0ab
:0300c50001decf8a
:0300c60001dfea6d
:0300c70001e10054
:0300c80001e21141
:0300c90001e31e32
:0300ca0001e42628
:0300cb0001e52923
:0300cc0001e62822
:0300cd0001e72226
:0300ce0001e8172f
:0300cf0001e9073d
:0300d00001e9f350
:0300d10001eada67
:0300d20001ebbd82
:0300d30001ec9aa3
:0300d40001ed73c8
:0300d50001ee47f2
:0300d60001ef1720
:0300d70001efe155
:0300d80001f0a78d
:0300d90001f168ca
:0300da0001f2240c
:0300db0001f2dc53
:0300dc0001f38e9f
:0300dd0001f43cef
:0300de0001f4e545
:0300df0001f5899f
:0300e00001f629fd
:0300e10001f6c362
:0300e20001f759ca
:0300e30001f7e939
:0300e40001f875ab
:0300e50001f8fc23
:0300e60001f97f9e
:0300e70001f9fc20
:0300e80001fa74a6
:0300e90001fae831
:0300ea0001fb57c0
:0300eb0001fbc056
:0300ec0001fc25ef
:0300ed0001fc858e
:0300ee0001fce032
:0300ef0001fd37d9
:0300f00001fd8887
:0300f10001fdd43a
:0300f20001fe1cf0
:0300f30001fe5ead
:0300f40001fe9c6e
:0300f50001fed534
:0300f60001ff08ff
:0300f70001ff37cf
:0300f80001ff61a4
:0300f90001ff867e
:0300fa0001ffa65d
:0300fb0001ffc141
:0300fc0001ffd829
:0300fd0001ffe917
:0300fe0001fff50a
:0300ff0001fffd01
:00000001FF
