:0300000001fffffe
:0300010001fff507
:0300020001ffd823
:0300030001ffa654
:0300040001ff6198
:0300050001ff08f0
:0300060001fe9c5c
:0300070001fe1cdb
:0300080001fd886f
:0300090001fce017
:03000a0001fc25d1
:03000b0001fb579f
:03000c0001fa7482
:03000d0001f97f77
:03000e0001f87581
:03000f0001f7599d
:0300100001f629cd
:0300110001f4e512
:0300120001f38e69
:0300130001f224d3
:0300140001f0a751
:0300150001ef17e1
:0300160001ed7386
:0300170001ebbd3d
:0300180001e9f308
:0300190001e817e4
:03001a0001e628d4
:03001b0001e426d7
:03001c0001e211ed
:03001d0001dfea16
:03001e0001ddb051
:03001f0001db649e
:0300200001d906fd
:0300210001d69570
:0300220001d412f4
:0300230001d17e8a
:0300240001ced733
:0300250001cc1eed
:0300260001c954b9
:0300270001c67897
:0300280001c38a87
:0300290001c08b88
:03002a0001bd7b9a
:03002b0001ba5abd
:03002c0001b727f2
:03002d0001b3e438
:03002e0001b0908e
:03002f0001ad2bf5
:0300300001a9b66d
:0300310001a630f5
:0300320001a29a8e
:03003300019ef338
:03003400019b3df0
:03003500019777b9
:030036000193a192
:03003700018fbc7a
:03003800018bc772
:030039000187c379
:03003a000183b08f
:03003b00017f8eb4
:03003c00017b5de8
:03003d0001771e2a
:03003e000172d07c
:03003f00016e74db
:03004000016a0949
:03004100016591c5
:0300420001610b4e
:03004300015c77e6
:030044000157d68b
:030045000153273d
:03004600014e6cfc
:030047000149a4c8
:030048000144cfa1
:03004900013fed87
:03004a00013aff79
:03004b0001360576
:03004c000130ff81
:03004d00012bed97
:03004e000126d0b8
:03004f000121a7e5
:03005000011c731d
:0300510001173460
:030052000111ebae
:03005300010c9607
:0300540001073869
:030055000101cfd7
:0300560000fc5d4e
:0300570000f6e0d0
:0300580000f15a5a
:0300590000ebcbee
:03005a0000e6338a
:03005b0000e09230
:03005c0000dae8df
:03005d0000d53695
:03005e0000cf7b55
:03005f0000c9b91c
:0300600000c3efeb
:0300610000be1dc1
:0300620000b8449f
:0300630000b26484
:0300640000ac7c71
:0300650000a68f63
:0300660000a09b5c
:03006700009aa05c
:030068000094a061
:03006900008e9a6c
:03006a0000888e7d
:03006b0000827d93
:03006c00007c68ad
:03006d0000764dcd
:03006e0000702ef1
:03006f00006a0a1a
:030070000063e347
:03007100005db778
:03007200005788ac
:03007300005156e3
:03007400004b201e
:030075000044e85c
:03007600003eac9d
:0300770000386fdf
:0300780000322f24
:03007900002bee6b
:03007a000025aab4
:03007b00001f65fe
:03007c0000191f49
:03007d000012d896
:03007e00000c91e2
:03007f0000064830
:030080000000007d
:0300810003f9b8c8
:0300820003f36f16
:0300830003ed2862
:0300840003e6e1af
:0300850003e09bfa
:0300860003da5644
:0300870003d4128d
:0300880003cdd1d4
:0300890003c79119
:03008a0003c1545b
:03008b0003bb189c
:03008c0003b4e0da
:03008d0003aeaa15
:03008e0003a8784c
:03008f0003a24980
:03009000039c1db1
:030091000395f6de
:03009200038fd207
:030093000389b32b
:030094000383984b
:03009500037d8365
:030096000377727b
:030097000371668c
:03009800036b6097
:030099000365609c
:03009a00035f659c
:03009b0003597195
:03009c0003538487
:03009d00034d9c74
:03009e000347bc59
:03009f000341e337
:0300a000033c110d
:0300a100033647dc
:0300a200033085a3
:0300a300032aca63
:0300a40003251819
:0300a500031f6ec8
:0300a6000319cd6e
:0300a7000314350a
:0300a800030ea69e
:0300a90003092028
:0300aa000303a3aa
:0300ab0002fe3121
:0300ac0002f8c88f
:0300ad0002f36af1
:0300ae0002ee154a
:0300af0002e8cc98
:0300b00002e38ddb
:0300b10002de5913
:0300b20002d93040
:0300b30002d41361
:0300b40002cf0177
:0300b50002c9fb82
:0300b60002c5017f
:0300b70002c01371
:0300b80002bb3157
:0300b90002b65c30
:0300ba0002b194fc
:0300bb0002acd9bb
:0300bc0002a82a6d
:0300bd0002a38912
:0300be00029ef5aa
:0300bf00029a6f33
:0300c0000295f7af
:0300c10002918c1d
:0300c200028d307c
:0300c3000288e2ce
:0300c4000284a310
:0300c50002807244
:0300c600027c5069
:0300c70002783d7f
:0300c80002743986
:0300c9000270447e
:0300ca00026c5f66
:0300cb000268893f
:0300cc000264c308
:0300cd0002610dc0
:0300ce00025d666a
:0300cf000259d003
:0300d00002564a8b
:0300d1000252d503
:0300d200024f706a
:0300d300024c1cc0
:0300d4000248d906
:0300d5000245a63b
:0300d6000242855e
:0300d700023f7570
:0300d800023c7671
:0300d90002398861
:0300da000236ac3f
:0300db000233e20b
:0300dc00023129c5
:0300dd00022e826e
:0300de00022bee04
:0300df0002296b88
:0300e0000226fafb
:0300e10002249c5a
:0300e200022250a7
:0300e300022016e2
:0300e400021def0b
:0300e500021bda21
:0300e6000219d824
:0300e7000217e914
:0300e80002160df0
:0300e900021443bb
:0300ea0002128d72
:0300eb000210e917
:0300ec00020f59a7
:0300ed00020ddc25
:0300ee00020c728f
:0300ef00020b1be6
:0300f0000209d72b
:0300f1000208a75b
:0300f20002078b77
:0300f30002068181
:0300f40002058c76
:0300f5000204a959
:0300f6000203db27
:0300f700020320e1
:0300f80002027889
:0300f9000201e41d
:0300fa000201649c
:0300fb000200f808
:0300fc0002009f60
:0300fd0002005aa4
:0300fe00020028d5
:0300ff0002000bf1
:00000001FF
